:080000000C9490000C94BD006B
:100008000C94E1000C9428010C9400000C94CF018E
:100018000C9400000C9400000C9400000C94000058
:100028000C9400000C948F010C9400000C940000B8
:100038000C9400000C9400000C9400000C94000038
:100048000C9400000C9400000C9400001027E803A6
:1000580064000A0001000010000110000100010006
:100068000000000000000000C0F9A4B0999282F8D6
:1000780080902083C600373839233435362A313208
:10008800332D63303D2B6C65640062757A7A657236
:1000980072656C6179002573002A313423002020B1
:1000A8007472756500202077726F6E6700706173D7
:1000B80073776F72643A003C3D3D003D3D3E000061
:1000C80080C00A00040066000D009802700010004D
:1000D800A5027E000300BA028E000600BE0292004E
:1000E8000500C502980005006002A100070065022E
:1000F800A60008006C02AD0001007402A0000A000E
:100108007502B50004007F02BF0004008302C3002B
:100118000200CD02C8000000F894EE27ECBBF1E025
:10012800FBBFEBBFE5BF8DE0A2E0BB27ED938A954F
:10013800E9F780E098E0A0E6ED930197E9F7EAECAB
:10014800F0E085919591009761F0A591B5910590A2
:100158001590BF01F00105900D920197E1F7FB01A1
:10016800F0CFEFE5EDBFE8E0EEBFC0E6D2E00C94DB
:10017800D001AA93BA93EA93FA93EFB7EA930E944D
:10018800F30431F4A091CB02B091CC02109709F09E
:100198000DC00E94F8040E94FF0411F44424552461
:1001A800F20131962F01E1E0F0E06F01E991EFBF34
:1001B800F991E991B991A99118950E94040531F432
:1001C800A091CB02B091CC02109709F03CC00E94DC
:1001D800F804E1E0F0E06F01F501309749F5E1E05E
:1001E800F0E05F016F01F201E130A0E0FA0739F4B5
:1001F800E0E0E5BBE091A202EBBBA89A18C0E230B0
:10020800A0E0FA0751F4E0E0E5BBE091A302EBBB04
:10021800A99A0E941205A9980AC0E330A0E0FA073B
:1002280031F4E0E0E5BBE091A402EBBBAA9A0BC075
:10023800E130A0E0FA0739F4E1E0F0E06F01E0E036
:10024800E5BBAA24BB2459C00E94040509F455C083
:100258000E949B02F30131963F013197EB54FD4F09
:10026800BF01E0B3F0E0DF01E0E1F0E00E948805C3
:10027800EB55FD4FE081DB01EC93E7E8F2E0FA9300
:10028800EA93EEE9F0E0FA93EA93E5EBF2E0662709
:1002980077270E94B10584E00E947D042896A7E88C
:1002A800B2E00E94C902E4E0F0E0E615F70529F59E
:1002B80066247724E5EBF2E0FA93EA93A0E6B2E04D
:1002C8000E94B104E03049F4A5E6B2E00E941605A8
:1002D8002ED1E5E0F0E03F0110C0ACE6B2E00E94AC
:1002E800160525D1E5EBF2E0FA93EA93E4E7F2E0AC
:1002F800FA93EA93A5E00E94DE04E991EFBFF99131
:10030800E991B991A9919991899179916991F99016
:100318001990099018950A921A929A93AA93BA93E7
:10032800EA93FA93EFB7EA930E94F30421F40024C6
:100338000A140B0409F003C0EFEFEBBB22C0EDE297
:10034800F1E0E815F90519F40E94F30409F402C074
:1003580088249924F40131964F01D401EEE1F0E0AC
:100368000E948D05319719F40E94F30409F409C01D
:10037800D401EEE1F0E00E948805E856FD4FE081E7
:10038800EBBBE991EFBFF991E991B991A9919991E5
:100398001990099018951895EFE7EABBE0E0EBBBD8
:1003A800E7BBE8BBE7E0E4BBE0E0E5BBE1BBE2BB01
:1003B800E5E0E3BFE0E0E2BFECBFEFBDEEBDEDBDC1
:1003C800ECBDE7BDE6BDEBBDEABDE9BDE8BDE2BDFC
:1003D800E7E0E5BDE0E0E4BDE3BDE1E4E9BFEBB79C
:1003E800E06EEBBFEFE0E5BFE0E4E4BFE0EEEABFBC
:1003F800E0E0EAB9E0E8E8B9E0E0E0BFE6B9EDB985
:10040800E6BFA0E1D3D07894A5E7B2E00E94160534
:100418008ED00E94F30409F057C0A091CB02B0918E
:10042800CC02119749F4A8ECB0E00E946305E0E023
:10043800E093CB02E093CC02E1E0F0E0EC15FD059F
:1004480019F475D0CC24DD240E94FF0421F0002487
:100458000A140B0409F006C00E94190596D00E94E0
:1004680021051BC00E94FF0429F0E1E0F0E0EA1535
:10047800FB0509F00CC0E1E0F0E0E415F50519F41E
:100488000E94190502C00E9421057FD007C0E0E044
:10049800EA93A0E03BD0A5ECB2E077D0E2E0F0E050
:1004A800E415F50521F0E7E0EA93A0E003C0E7E0F2
:1004B800EA93A1E02BD00A2C0B2819F4AFE7B2E09D
:1004C80002C0A3E8B2E061D0A4CFFFCFAA93E8B3FB
:1004D800EF70AE2FE881E07FEA2BE8BB8DE08A95CC
:1004E800F1F7C39A8DE08A95F1F7C3988DE08A9564
:1004F800F1F789C0AA93A881E9DFE881E295E8834A
:10050800A881E4DF85E88A95F1F77DC0AA93E881A0
:10051800F0E0E353FD4FE081A981AE0FEBDFE98105
:10052800E093D102E881E093D20222960895A2E0F6
:100538000E942905ACE0DEDFA1E00E942905E0E089
:10054800E093D202E093D1020895AA93A881AA3039
:1005580031F0E091D302A091D102AE1760F0E0E053
:10056800EA93A091D202AF5FA093D202CFDFA88115
:10057800AA3009F448C0E091D102EF5FE093D102BC
:10058800C09AA881B7DFC0983EC0BA93AA931A93BD
:10059800A981BA81ED91A983BA831E2FE03019F0A1
:1005A800A12FD3DFF5CF188123960895AA93E7B337
:1005B800E06FE7BBBB9AB89AB99AC398C098C1983C
:1005C800E881E093D302E058E093CF02E881E05459
:1005D800E093D002A4E1B0E00E9463050E942F05D9
:1005E8000E942F050E942F05A0E270DF88EC90E0A2
:1005F8000197F1F7A8E27EDFA4E07CDFA5E87ADFC7
:10060800A6E078DF94DF21960895BA93AA931A9307
:100618000A93AA81BB8112960E94A905309759F1C5
:10062800AA81BB8114960E94A9058F01309761F0B9
:100638000230E0E01E0798F0F80131978F01AA8197
:10064800BB811496ED93FC93AA81BB811296ED9120
:10065800FD913196FE93EE933197AC81A083AA81E8
:10066800BB810E94A905FF232AF0ED91FD913196E7
:10067800FE93EE9306C0AA81BB81EFEFFFEFED93E7
:10068800FC931981088125960895BA93AA93269711
:100698000E94B60510E0AC85BD85E0E0F0E0ED9382
:1006A800FC93EA89FB893196EA8BFB8B3197E491BD
:1006B8002E2FE03009F415C1E12FE03039F425324E
:1006C80011F411E002C00E9437050AC1E130A9F413
:1006D800253219F40E94370502C112E040E000E01B
:1006E8002D3211F401E0FCC02B3211F44BE2F8C0BA
:1006F800203211F440E2F4C002C0E23039F450E094
:1007080013E0203311F40068EBC003C0E33009F0B4
:10071800E7C0203310F02A3308F007C0AAE05A9F38
:10072800502DE22FE0535E0FDBC0E22FE33649F491
:100738000E943E05E889F989A481AA930E9444058C
:10074800CEC0E33741F40E943E050E944A050E944C
:10075800C5041E2F0AC0E03761F40E943E050E94BE
:100768004A050E94D1041E2F086002600F7730E00E
:1007780034C0E43611F0E93611F4046002C0E537FC
:1007880031F4E4E5F0E0EE83FF8315E00CC0E835D2
:1007980011F4086003C0E83709F0A1C0EEE5F0E005
:1007A800EE83FF8314E002FF14C00E943E050E94FE
:1007B8005405AB85AA233AF4EA85FB850E947105A6
:1007C800EA87FB874DE2403011F01F5F01C00B7FC5
:1007D80004C00E943E050E94540500FD11C0151773
:1007E80078F407FF08C002FF04C00B7F242F1150C4
:1007F80001C020E301C020E20E9437055150EFCF2D
:10080800312F01FF17C03030A1F003FF06C0EE8181
:10081800FF812591EE83FF8305C0AE81BF812D91B5
:10082800AE83BF830E943705503009F051503150D4
:10083800EACF4BC020E3EE81FF810E94AD05E88737
:10084800F987EE81FF813296EE83FF83E885F9858B
:10085800AA85BB85AE17BF0750F02F5FA885B9855D
:10086800EA85FB85EA1BFB0BEA87FB87EFCF2A3378
:1008780028F003FF02C0295F01C0295D04FD1AC0EA
:10088800213320F4A885B985119709F409C05317B5
:1008980010F000FF01C013C020E207FF0BC020E3E7
:1008A800006102FF07C00B7F4A930E944405503045
:1008B80009F051500E943705503009F0515031501D
:1008C800A885B985129708F0B5CF00FF08C0503049
:1008D80031F05150E0E2EA930E944405F8CF10E06D
:1008E800E0CEAC85BD850E94A9050E94BD05649631
:1008F8000895FF92F82E26970E94B8050E945C057D
:10090800309719F4EFEFFFEF23C0DE0116960E942F
:100918006D058D010E945C05EE83FF83E0E0E887AA
:10092800E987DE011A960E946D050E94A905FA93CF
:10093800EA931A930A93E9E0F3E0FA93EA93DE0163
:100948001A96A3DE9F01AE81BF81E0E0EC93F90126
:100958000E94BF052A96FF900895BA93AA93E99139
:10096800F991A991B9916D917191671721F4662355
:10097800D1F7EE270895671BE1F3E1E008F4E250B0
:100988000895BA93AA93A991B991EE27FF276D917B
:10099800662311F03196FBCF0895BA93AA93AA273C
:1009A800BB27E991F9910590002011F01196FBCF32
:1009B800FD010895AA937991E991F991A991B991C5
:1009C800CD01772351F07A9561916D936623C9F72C
:1009D800772319F07A956D93FBCFFC010895E5E034
:1009E800F0E0E615F7050895E1E0F0E0E093CB02CA
:1009F800F093CC020895E3E0F0E0E415F5050895DE
:100A08000A921A92FA926A937A938A939A93AA9379
:100A1800BA93EA93FA93EFB7EA93E1CFA8EEB3E07B
:100A28000C9463050E94C902F9CFE0E0EA93A0E0C4
:100A38000E948A02AAEBB2E00895E0E0EA93A1E0FE
:100A48000E948A02AEEBB2E008950E947E02A3E003
:100A5800B0E00C946305A0E30E946A0288EC90E081
:100A68000197F1F708952A93AD85BE85EF85F8893A
:100A780009950895E889F9893497E88BF98B0895E1
:100A8800AD85BE85EF85F88909950895A889B98946
:100A980014960E94A905EE83FF83AE81BF81089555
:100AA800A889B98914960E94A905EA87FB87089541
:100AB800DE011C960E946D050E94A90508951096F6
:100AC80039F0A89580ED97E00197F1F71197C9F7EC
:100AD80008950024AF0DB01D0895F195E195F040FB
:100AE80008950024112490E1AA0FBB1F001C111CBB
:100AF8000E1A1F0A18F40E0E1F1E01C0A1609A9547
:100B080099F7FD01D001089512D0EBDF0EF4E5DF6F
:100B18000895E894B7FF04C0A095B095119668941D
:100B2800F7FDDBDFDEDFFD010EF4D7DF0895E89483
:100B3800F7FF02C0D2DF6894B7FF06C0A095B09552
:100B4800119600F8039400FA0895ED91FC9111971D
:100B580008950590F491E02D08957A936A93FA9395
:100B6800EA9308955A934A933A932A931A930A93C5
:100B780008955D814C813B812A81198108810895FE
:00000001FF
